{
  "contractName": "ReslabEtsit",
  "abi": [
    {
      "inputs": [],
      "payable": false,
      "stateMutability": "nonpayable",
      "type": "constructor"
    },
    {
      "constant": true,
      "inputs": [
        {
          "internalType": "uint256",
          "name": "",
          "type": "uint256"
        }
      ],
      "name": "asignaturasRegistradas",
      "outputs": [
        {
          "internalType": "string",
          "name": "nombre",
          "type": "string"
        },
        {
          "internalType": "uint256",
          "name": "indexLab",
          "type": "uint256"
        },
        {
          "internalType": "string",
          "name": "info",
          "type": "string"
        }
      ],
      "payable": false,
      "stateMutability": "view",
      "type": "function"
    },
    {
      "constant": true,
      "inputs": [
        {
          "internalType": "address",
          "name": "",
          "type": "address"
        },
        {
          "internalType": "string",
          "name": "",
          "type": "string"
        },
        {
          "internalType": "uint256",
          "name": "",
          "type": "uint256"
        }
      ],
      "name": "contadorCredito",
      "outputs": [
        {
          "internalType": "uint256",
          "name": "",
          "type": "uint256"
        }
      ],
      "payable": false,
      "stateMutability": "view",
      "type": "function"
    },
    {
      "constant": true,
      "inputs": [
        {
          "internalType": "address",
          "name": "",
          "type": "address"
        }
      ],
      "name": "datosAlumno",
      "outputs": [
        {
          "internalType": "string",
          "name": "nombre",
          "type": "string"
        },
        {
          "internalType": "string",
          "name": "email",
          "type": "string"
        },
        {
          "internalType": "string",
          "name": "asignaturasMatriculadas",
          "type": "string"
        }
      ],
      "payable": false,
      "stateMutability": "view",
      "type": "function"
    },
    {
      "constant": true,
      "inputs": [
        {
          "internalType": "address",
          "name": "",
          "type": "address"
        }
      ],
      "name": "datosProfesor",
      "outputs": [
        {
          "internalType": "string",
          "name": "nombreP",
          "type": "string"
        },
        {
          "internalType": "string",
          "name": "emailP",
          "type": "string"
        },
        {
          "internalType": "string",
          "name": "asignaturaP",
          "type": "string"
        },
        {
          "internalType": "string",
          "name": "departamentoP",
          "type": "string"
        },
        {
          "internalType": "string",
          "name": "LaboratorioP",
          "type": "string"
        }
      ],
      "payable": false,
      "stateMutability": "view",
      "type": "function"
    },
    {
      "constant": true,
      "inputs": [
        {
          "internalType": "uint256",
          "name": "",
          "type": "uint256"
        },
        {
          "internalType": "uint256",
          "name": "",
          "type": "uint256"
        }
      ],
      "name": "datosReserva",
      "outputs": [
        {
          "internalType": "address",
          "name": "dirAlumno",
          "type": "address"
        }
      ],
      "payable": false,
      "stateMutability": "view",
      "type": "function"
    },
    {
      "constant": true,
      "inputs": [
        {
          "internalType": "uint256",
          "name": "",
          "type": "uint256"
        },
        {
          "internalType": "uint256",
          "name": "",
          "type": "uint256"
        },
        {
          "internalType": "uint256",
          "name": "",
          "type": "uint256"
        },
        {
          "internalType": "uint256",
          "name": "",
          "type": "uint256"
        }
      ],
      "name": "datosReservaPorLabPuestoFechaTurno",
      "outputs": [
        {
          "internalType": "address",
          "name": "dirAlumno",
          "type": "address"
        }
      ],
      "payable": false,
      "stateMutability": "view",
      "type": "function"
    },
    {
      "constant": true,
      "inputs": [
        {
          "internalType": "uint256",
          "name": "",
          "type": "uint256"
        },
        {
          "internalType": "uint256",
          "name": "",
          "type": "uint256"
        },
        {
          "internalType": "uint256",
          "name": "",
          "type": "uint256"
        }
      ],
      "name": "datosReservaPorLabPuestoTurno",
      "outputs": [
        {
          "internalType": "address",
          "name": "dirAlumno",
          "type": "address"
        }
      ],
      "payable": false,
      "stateMutability": "view",
      "type": "function"
    },
    {
      "constant": true,
      "inputs": [
        {
          "internalType": "uint256",
          "name": "",
          "type": "uint256"
        }
      ],
      "name": "indiceLabPorAsignatura",
      "outputs": [
        {
          "internalType": "uint256",
          "name": "",
          "type": "uint256"
        }
      ],
      "payable": false,
      "stateMutability": "view",
      "type": "function"
    },
    {
      "constant": true,
      "inputs": [
        {
          "internalType": "uint256",
          "name": "",
          "type": "uint256"
        }
      ],
      "name": "laboratoriosRegistrados",
      "outputs": [
        {
          "internalType": "uint256",
          "name": "laboratorioindex",
          "type": "uint256"
        },
        {
          "internalType": "string",
          "name": "nombreL",
          "type": "string"
        },
        {
          "internalType": "string",
          "name": "asignaura",
          "type": "string"
        },
        {
          "internalType": "string",
          "name": "info",
          "type": "string"
        }
      ],
      "payable": false,
      "stateMutability": "view",
      "type": "function"
    },
    {
      "constant": true,
      "inputs": [
        {
          "internalType": "uint256",
          "name": "",
          "type": "uint256"
        }
      ],
      "name": "matriculas",
      "outputs": [
        {
          "internalType": "address",
          "name": "",
          "type": "address"
        }
      ],
      "payable": false,
      "stateMutability": "view",
      "type": "function"
    },
    {
      "constant": true,
      "inputs": [],
      "name": "owner",
      "outputs": [
        {
          "internalType": "address",
          "name": "",
          "type": "address"
        }
      ],
      "payable": false,
      "stateMutability": "view",
      "type": "function"
    },
    {
      "constant": true,
      "inputs": [
        {
          "internalType": "uint256",
          "name": "",
          "type": "uint256"
        }
      ],
      "name": "profesRegistrados",
      "outputs": [
        {
          "internalType": "address",
          "name": "",
          "type": "address"
        }
      ],
      "payable": false,
      "stateMutability": "view",
      "type": "function"
    },
    {
      "constant": true,
      "inputs": [],
      "name": "profesor",
      "outputs": [
        {
          "internalType": "address",
          "name": "",
          "type": "address"
        }
      ],
      "payable": false,
      "stateMutability": "view",
      "type": "function"
    },
    {
      "constant": true,
      "inputs": [
        {
          "internalType": "uint256",
          "name": "",
          "type": "uint256"
        },
        {
          "internalType": "uint256",
          "name": "",
          "type": "uint256"
        }
      ],
      "name": "puestos",
      "outputs": [
        {
          "internalType": "uint256",
          "name": "",
          "type": "uint256"
        }
      ],
      "payable": false,
      "stateMutability": "view",
      "type": "function"
    },
    {
      "constant": true,
      "inputs": [
        {
          "internalType": "uint256",
          "name": "",
          "type": "uint256"
        },
        {
          "internalType": "uint256",
          "name": "",
          "type": "uint256"
        }
      ],
      "name": "puestosDelLaboratorio",
      "outputs": [
        {
          "internalType": "uint256",
          "name": "",
          "type": "uint256"
        }
      ],
      "payable": false,
      "stateMutability": "view",
      "type": "function"
    },
    {
      "constant": true,
      "inputs": [
        {
          "internalType": "uint256",
          "name": "",
          "type": "uint256"
        }
      ],
      "name": "puestosRegistrados",
      "outputs": [
        {
          "internalType": "string",
          "name": "nombre",
          "type": "string"
        },
        {
          "internalType": "uint256",
          "name": "indexlab",
          "type": "uint256"
        }
      ],
      "payable": false,
      "stateMutability": "view",
      "type": "function"
    },
    {
      "constant": true,
      "inputs": [
        {
          "internalType": "uint256",
          "name": "",
          "type": "uint256"
        },
        {
          "internalType": "uint256",
          "name": "",
          "type": "uint256"
        },
        {
          "internalType": "uint256",
          "name": "",
          "type": "uint256"
        }
      ],
      "name": "turnosPorPuesto",
      "outputs": [
        {
          "internalType": "uint256",
          "name": "",
          "type": "uint256"
        }
      ],
      "payable": false,
      "stateMutability": "view",
      "type": "function"
    },
    {
      "constant": true,
      "inputs": [
        {
          "internalType": "uint256",
          "name": "",
          "type": "uint256"
        }
      ],
      "name": "turnosRegistrados",
      "outputs": [
        {
          "internalType": "string",
          "name": "nombre",
          "type": "string"
        },
        {
          "internalType": "uint256",
          "name": "fecha",
          "type": "uint256"
        }
      ],
      "payable": false,
      "stateMutability": "view",
      "type": "function"
    },
    {
      "constant": true,
      "inputs": [
        {
          "internalType": "uint256",
          "name": "_indexlab",
          "type": "uint256"
        }
      ],
      "name": "puestosDelLaboratorioLength",
      "outputs": [
        {
          "internalType": "uint256",
          "name": "",
          "type": "uint256"
        }
      ],
      "payable": false,
      "stateMutability": "view",
      "type": "function"
    },
    {
      "constant": true,
      "inputs": [],
      "name": "turnosLength",
      "outputs": [
        {
          "internalType": "uint256",
          "name": "",
          "type": "uint256"
        }
      ],
      "payable": false,
      "stateMutability": "view",
      "type": "function"
    },
    {
      "constant": true,
      "inputs": [
        {
          "internalType": "uint256",
          "name": "_laboratorioindex",
          "type": "uint256"
        }
      ],
      "name": "puestosLaboratorioLength",
      "outputs": [
        {
          "internalType": "uint256",
          "name": "",
          "type": "uint256"
        }
      ],
      "payable": false,
      "stateMutability": "view",
      "type": "function"
    },
    {
      "constant": true,
      "inputs": [],
      "name": "laboratoriosLength",
      "outputs": [
        {
          "internalType": "uint256",
          "name": "",
          "type": "uint256"
        }
      ],
      "payable": false,
      "stateMutability": "view",
      "type": "function"
    },
    {
      "constant": true,
      "inputs": [
        {
          "internalType": "uint256",
          "name": "_laboratorioindex",
          "type": "uint256"
        }
      ],
      "name": "puestosdeLaboratorio",
      "outputs": [
        {
          "internalType": "uint256",
          "name": "",
          "type": "uint256"
        }
      ],
      "payable": false,
      "stateMutability": "view",
      "type": "function"
    },
    {
      "constant": false,
      "inputs": [
        {
          "internalType": "uint256",
          "name": "_puestoId",
          "type": "uint256"
        },
        {
          "internalType": "uint256",
          "name": "_fecha",
          "type": "uint256"
        },
        {
          "internalType": "uint256",
          "name": "_turno",
          "type": "uint256"
        },
        {
          "internalType": "string",
          "name": "_asignatura",
          "type": "string"
        }
      ],
      "name": "guardarReserva",
      "outputs": [],
      "payable": false,
      "stateMutability": "nonpayable",
      "type": "function"
    },
    {
      "constant": false,
      "inputs": [
        {
          "internalType": "uint256",
          "name": "_puestoId",
          "type": "uint256"
        },
        {
          "internalType": "uint256",
          "name": "_fecha",
          "type": "uint256"
        },
        {
          "internalType": "uint256",
          "name": "_turno",
          "type": "uint256"
        },
        {
          "internalType": "string",
          "name": "_asignatura",
          "type": "string"
        }
      ],
      "name": "quitarReserva",
      "outputs": [],
      "payable": false,
      "stateMutability": "nonpayable",
      "type": "function"
    },
    {
      "constant": false,
      "inputs": [
        {
          "internalType": "uint256",
          "name": "_laboratorioindex",
          "type": "uint256"
        },
        {
          "internalType": "string",
          "name": "_nombreL",
          "type": "string"
        },
        {
          "internalType": "string",
          "name": "_asignaura",
          "type": "string"
        },
        {
          "internalType": "string",
          "name": "_Info",
          "type": "string"
        }
      ],
      "name": "creaLaboratorio",
      "outputs": [
        {
          "internalType": "uint256",
          "name": "",
          "type": "uint256"
        }
      ],
      "payable": false,
      "stateMutability": "nonpayable",
      "type": "function"
    },
    {
      "constant": false,
      "inputs": [
        {
          "internalType": "string",
          "name": "_nombreAsig",
          "type": "string"
        },
        {
          "internalType": "uint256",
          "name": "_indexLab",
          "type": "uint256"
        },
        {
          "internalType": "string",
          "name": "_Info",
          "type": "string"
        }
      ],
      "name": "creaAsignatura",
      "outputs": [
        {
          "internalType": "uint256",
          "name": "",
          "type": "uint256"
        }
      ],
      "payable": false,
      "stateMutability": "nonpayable",
      "type": "function"
    },
    {
      "constant": false,
      "inputs": [
        {
          "internalType": "string",
          "name": "_NombreP",
          "type": "string"
        },
        {
          "internalType": "uint256",
          "name": "_indexlab",
          "type": "uint256"
        }
      ],
      "name": "creaPuesto",
      "outputs": [
        {
          "internalType": "uint256",
          "name": "",
          "type": "uint256"
        }
      ],
      "payable": false,
      "stateMutability": "nonpayable",
      "type": "function"
    },
    {
      "constant": false,
      "inputs": [
        {
          "internalType": "string",
          "name": "_nombre",
          "type": "string"
        },
        {
          "internalType": "uint256",
          "name": "_fecha",
          "type": "uint256"
        }
      ],
      "name": "creaTurno",
      "outputs": [
        {
          "internalType": "uint256",
          "name": "",
          "type": "uint256"
        }
      ],
      "payable": false,
      "stateMutability": "nonpayable",
      "type": "function"
    },
    {
      "constant": true,
      "inputs": [],
      "name": "matriculasLength",
      "outputs": [
        {
          "internalType": "uint256",
          "name": "",
          "type": "uint256"
        }
      ],
      "payable": false,
      "stateMutability": "view",
      "type": "function"
    },
    {
      "constant": true,
      "inputs": [],
      "name": "profesRegistradosLength",
      "outputs": [
        {
          "internalType": "uint256",
          "name": "",
          "type": "uint256"
        }
      ],
      "payable": false,
      "stateMutability": "view",
      "type": "function"
    },
    {
      "constant": true,
      "inputs": [],
      "name": "asignaturasRegistradasLength",
      "outputs": [
        {
          "internalType": "uint256",
          "name": "",
          "type": "uint256"
        }
      ],
      "payable": false,
      "stateMutability": "view",
      "type": "function"
    },
    {
      "constant": false,
      "inputs": [
        {
          "internalType": "string",
          "name": "_nombre",
          "type": "string"
        },
        {
          "internalType": "string",
          "name": "_email",
          "type": "string"
        },
        {
          "internalType": "string",
          "name": "_asig",
          "type": "string"
        }
      ],
      "name": "automatricula",
      "outputs": [],
      "payable": false,
      "stateMutability": "nonpayable",
      "type": "function"
    },
    {
      "constant": false,
      "inputs": [
        {
          "internalType": "string",
          "name": "_nombreP",
          "type": "string"
        },
        {
          "internalType": "string",
          "name": "_emailP",
          "type": "string"
        },
        {
          "internalType": "string",
          "name": "_asignaturaP",
          "type": "string"
        },
        {
          "internalType": "string",
          "name": "_departamentoP",
          "type": "string"
        },
        {
          "internalType": "string",
          "name": "_laboratorioP",
          "type": "string"
        }
      ],
      "name": "autoRegistro",
      "outputs": [],
      "payable": false,
      "stateMutability": "nonpayable",
      "type": "function"
    },
    {
      "constant": true,
      "inputs": [],
      "name": "quienSoy",
      "outputs": [
        {
          "internalType": "string",
          "name": "_nombre",
          "type": "string"
        },
        {
          "internalType": "string",
          "name": "_email",
          "type": "string"
        }
      ],
      "payable": false,
      "stateMutability": "view",
      "type": "function"
    },
    {
      "constant": true,
      "inputs": [],
      "name": "quienSoyP",
      "outputs": [
        {
          "internalType": "string",
          "name": "_nombre",
          "type": "string"
        },
        {
          "internalType": "string",
          "name": "_email",
          "type": "string"
        }
      ],
      "payable": false,
      "stateMutability": "view",
      "type": "function"
    }
  ],
  "bytecode": "0x608060405234801561001057600080fd5b50336000806101000a81548173ffffffffffffffffffffffffffffffffffffffff021916908373ffffffffffffffffffffffffffffffffffffffff160217905550614bc5806100606000396000f3fe608060405234801561001057600080fd5b506004361061021c5760003560e01c80638fa425e711610125578063c88da89e116100ad578063df0965761161007c578063df09657614611b87578063ee0e7c4f14611bd1578063f0f066ef14611c3f578063f83dfff214611c81578063f85c7aeb14611d5a5761021c565b8063c88da89e14611884578063cbf232881461199e578063cdea020914611a4c578063d4cf859d14611a985761021c565b8063b4b4a51f116100f4578063b4b4a51f1461150d578063b5daf62c1461152b578063bcfe45d3146116b1578063c2c639b61461178a578063c7918139146118165761021c565b80638fa425e7146111365780639b71901c1461118c5780639e1d8f4b146114a3578063b013bd24146114c15761021c565b80636ad8a0fb116101a85780637fa4574d116101775780637fa4574d14610ddf578063810e8c8014610eb857806387972906146110285780638b69735b146110aa5780638da5cb5b146110ec5761021c565b80636ad8a0fb14610b605780636bf8aad614610c0e57806370d714f214610da357806379b51b6a14610dc15761021c565b806353766883116101ef5780635376688314610524578063589afa2214610613578063641945bf146106ec578063681d4ca6146109595780636916662b14610b425761021c565b8063151b3f5214610221578063296d91db146102995780633bd20561146104a057806344141cb9146104e2575b600080fd5b6102576004803603604081101561023757600080fd5b810190808035906020019092919080359060200190929190505050611e53565b604051808273ffffffffffffffffffffffffffffffffffffffff1673ffffffffffffffffffffffffffffffffffffffff16815260200191505060405180910390f35b61048a600480360360808110156102af57600080fd5b8101908080359060200190929190803590602001906401000000008111156102d657600080fd5b8201836020820111156102e857600080fd5b8035906020019184600183028401116401000000008311171561030a57600080fd5b91908080601f016020809104026020016040519081016040528093929190818152602001838380828437600081840152601f19601f8201169050808301925050505050505091929192908035906020019064010000000081111561036d57600080fd5b82018360208201111561037f57600080fd5b803590602001918460018302840111640100000000831117156103a157600080fd5b91908080601f016020809104026020016040519081016040528093929190818152602001838380828437600081840152601f19601f8201169050808301925050505050505091929192908035906020019064010000000081111561040457600080fd5b82018360208201111561041657600080fd5b8035906020019184600183028401116401000000008311171561043857600080fd5b91908080601f016020809104026020016040519081016040528093929190818152602001838380828437600081840152601f19601f820116905080830192505050505050509192919290505050611e9e565b6040518082815260200191505060405180910390f35b6104cc600480360360208110156104b657600080fd5b8101908080359060200190929190505050612088565b6040518082815260200191505060405180910390f35b61050e600480360360208110156104f857600080fd5b81019080803590602001909291905050506120a8565b6040518082815260200191505060405180910390f35b61052c6120c0565b604051808060200180602001838103835285818151815260200191508051906020019080838360005b83811015610570578082015181840152602081019050610555565b50505050905090810190601f16801561059d5780820380516001836020036101000a031916815260200191505b50838103825284818151815260200191508051906020019080838360005b838110156105d65780820151818401526020810190506105bb565b50505050905090810190601f1680156106035780820380516001836020036101000a031916815260200191505b5094505050505060405180910390f35b6106ea6004803603608081101561062957600080fd5b810190808035906020019092919080359060200190929190803590602001909291908035906020019064010000000081111561066457600080fd5b82018360208201111561067657600080fd5b8035906020019184600183028401116401000000008311171561069857600080fd5b91908080601f016020809104026020016040519081016040528093929190818152602001838380828437600081840152601f19601f82011690508083019250505050505050919291929050505061236e565b005b61072e6004803603602081101561070257600080fd5b81019080803573ffffffffffffffffffffffffffffffffffffffff1690602001909291905050506127ca565b60405180806020018060200180602001806020018060200186810386528b818151815260200191508051906020019080838360005b8381101561077e578082015181840152602081019050610763565b50505050905090810190601f1680156107ab5780820380516001836020036101000a031916815260200191505b5086810385528a818151815260200191508051906020019080838360005b838110156107e45780820151818401526020810190506107c9565b50505050905090810190601f1680156108115780820380516001836020036101000a031916815260200191505b50868103845289818151815260200191508051906020019080838360005b8381101561084a57808201518184015260208101905061082f565b50505050905090810190601f1680156108775780820380516001836020036101000a031916815260200191505b50868103835288818151815260200191508051906020019080838360005b838110156108b0578082015181840152602081019050610895565b50505050905090810190601f1680156108dd5780820380516001836020036101000a031916815260200191505b50868103825287818151815260200191508051906020019080838360005b838110156109165780820151818401526020810190506108fb565b50505050905090810190601f1680156109435780820380516001836020036101000a031916815260200191505b509a505050505050505050505060405180910390f35b610b406004803603606081101561096f57600080fd5b810190808035906020019064010000000081111561098c57600080fd5b82018360208201111561099e57600080fd5b803590602001918460018302840111640100000000831117156109c057600080fd5b91908080601f016020809104026020016040519081016040528093929190818152602001838380828437600081840152601f19601f82011690508083019250505050505050919291929080359060200190640100000000811115610a2357600080fd5b820183602082011115610a3557600080fd5b80359060200191846001830284011164010000000083111715610a5757600080fd5b91908080601f016020809104026020016040519081016040528093929190818152602001838380828437600081840152601f19601f82011690508083019250505050505050919291929080359060200190640100000000811115610aba57600080fd5b820183602082011115610acc57600080fd5b80359060200191846001830284011164010000000083111715610aee57600080fd5b91908080601f016020809104026020016040519081016040528093929190818152602001838380828437600081840152601f19601f820116905080830192505050505050509192919290505050612af8565b005b610b4a612d00565b6040518082815260200191505060405180910390f35b610b8c60048036036020811015610b7657600080fd5b8101908080359060200190929190505050612d0d565b6040518080602001838152602001828103825284818151815260200191508051906020019080838360005b83811015610bd2578082015181840152602081019050610bb7565b50505050905090810190601f168015610bff5780820380516001836020036101000a031916815260200191505b50935050505060405180910390f35b610c5060048036036020811015610c2457600080fd5b81019080803573ffffffffffffffffffffffffffffffffffffffff169060200190929190505050612dd6565b60405180806020018060200180602001848103845287818151815260200191508051906020019080838360005b83811015610c98578082015181840152602081019050610c7d565b50505050905090810190601f168015610cc55780820380516001836020036101000a031916815260200191505b50848103835286818151815260200191508051906020019080838360005b83811015610cfe578082015181840152602081019050610ce3565b50505050905090810190601f168015610d2b5780820380516001836020036101000a031916815260200191505b50848103825285818151815260200191508051906020019080838360005b83811015610d64578082015181840152602081019050610d49565b50505050905090810190601f168015610d915780820380516001836020036101000a031916815260200191505b50965050505050505060405180910390f35b610dab612fc8565b6040518082815260200191505060405180910390f35b610dc9612fd5565b6040518082815260200191505060405180910390f35b610ea260048036036040811015610df557600080fd5b8101908080359060200190640100000000811115610e1257600080fd5b820183602082011115610e2457600080fd5b80359060200191846001830284011164010000000083111715610e4657600080fd5b91908080601f016020809104026020016040519081016040528093929190818152602001838380828437600081840152601f19601f82011690508083019250505050505050919291929080359060200190929190505050612fe2565b6040518082815260200191505060405180910390f35b61101260048036036060811015610ece57600080fd5b8101908080359060200190640100000000811115610eeb57600080fd5b820183602082011115610efd57600080fd5b80359060200191846001830284011164010000000083111715610f1f57600080fd5b91908080601f016020809104026020016040519081016040528093929190818152602001838380828437600081840152601f19601f8201169050808301925050505050505091929192908035906020019092919080359060200190640100000000811115610f8c57600080fd5b820183602082011115610f9e57600080fd5b80359060200191846001830284011164010000000083111715610fc057600080fd5b91908080601f016020809104026020016040519081016040528093929190818152602001838380828437600081840152601f19601f820116905080830192505050505050509192919290505050613184565b6040518082815260200191505060405180910390f35b6110686004803603606081101561103e57600080fd5b8101908080359060200190929190803590602001909291908035906020019092919050505061334a565b604051808273ffffffffffffffffffffffffffffffffffffffff1673ffffffffffffffffffffffffffffffffffffffff16815260200191505060405180910390f35b6110d6600480360360208110156110c057600080fd5b81019080803590602001909291905050506133a2565b6040518082815260200191505060405180910390f35b6110f46133c2565b604051808273ffffffffffffffffffffffffffffffffffffffff1673ffffffffffffffffffffffffffffffffffffffff16815260200191505060405180910390f35b6111766004803603606081101561114c57600080fd5b810190808035906020019092919080359060200190929190803590602001909291905050506133e7565b6040518082815260200191505060405180910390f35b6114a1600480360360a08110156111a257600080fd5b81019080803590602001906401000000008111156111bf57600080fd5b8201836020820111156111d157600080fd5b803590602001918460018302840111640100000000831117156111f357600080fd5b91908080601f016020809104026020016040519081016040528093929190818152602001838380828437600081840152601f19601f8201169050808301925050505050505091929192908035906020019064010000000081111561125657600080fd5b82018360208201111561126857600080fd5b8035906020019184600183028401116401000000008311171561128a57600080fd5b91908080601f016020809104026020016040519081016040528093929190818152602001838380828437600081840152601f19601f820116905080830192505050505050509192919290803590602001906401000000008111156112ed57600080fd5b8201836020820111156112ff57600080fd5b8035906020019184600183028401116401000000008311171561132157600080fd5b91908080601f016020809104026020016040519081016040528093929190818152602001838380828437600081840152601f19601f8201169050808301925050505050505091929192908035906020019064010000000081111561138457600080fd5b82018360208201111561139657600080fd5b803590602001918460018302840111640100000000831117156113b857600080fd5b91908080601f016020809104026020016040519081016040528093929190818152602001838380828437600081840152601f19601f8201169050808301925050505050505091929192908035906020019064010000000081111561141b57600080fd5b82018360208201111561142d57600080fd5b8035906020019184600183028401116401000000008311171561144f57600080fd5b91908080601f016020809104026020016040519081016040528093929190818152602001838380828437600081840152601f19601f820116905080830192505050505050509192919290505050613422565b005b6114ab613672565b6040518082815260200191505060405180910390f35b6114f7600480360360408110156114d757600080fd5b81019080803590602001909291908035906020019092919050505061367f565b6040518082815260200191505060405180910390f35b6115156136ad565b6040518082815260200191505060405180910390f35b6115576004803603602081101561154157600080fd5b81019080803590602001909291905050506136ba565b60405180858152602001806020018060200180602001848103845287818151815260200191508051906020019080838360005b838110156115a557808201518184015260208101905061158a565b50505050905090810190601f1680156115d25780820380516001836020036101000a031916815260200191505b50848103835286818151815260200191508051906020019080838360005b8381101561160b5780820151818401526020810190506115f0565b50505050905090810190601f1680156116385780820380516001836020036101000a031916815260200191505b50848103825285818151815260200191508051906020019080838360005b83811015611671578082015181840152602081019050611656565b50505050905090810190601f16801561169e5780820380516001836020036101000a031916815260200191505b5097505050505050505060405180910390f35b611774600480360360408110156116c757600080fd5b81019080803590602001906401000000008111156116e457600080fd5b8201836020820111156116f657600080fd5b8035906020019184600183028401116401000000008311171561171857600080fd5b91908080601f016020809104026020016040519081016040528093929190818152602001838380828437600081840152601f19601f820116905080830192505050505050509192919290803590602001909291905050506138bf565b6040518082815260200191505060405180910390f35b6117d4600480360360808110156117a057600080fd5b8101908080359060200190929190803590602001909291908035906020019092919080359060200190929190505050613aa4565b604051808273ffffffffffffffffffffffffffffffffffffffff1673ffffffffffffffffffffffffffffffffffffffff16815260200191505060405180910390f35b6118426004803603602081101561182c57600080fd5b8101908080359060200190929190505050613b09565b604051808273ffffffffffffffffffffffffffffffffffffffff1673ffffffffffffffffffffffffffffffffffffffff16815260200191505060405180910390f35b6118b06004803603602081101561189a57600080fd5b8101908080359060200190929190505050613b45565b604051808060200184815260200180602001838103835286818151815260200191508051906020019080838360005b838110156118fa5780820151818401526020810190506118df565b50505050905090810190601f1680156119275780820380516001836020036101000a031916815260200191505b50838103825284818151815260200191508051906020019080838360005b83811015611960578082015181840152602081019050611945565b50505050905090810190601f16801561198d5780820380516001836020036101000a031916815260200191505b509550505050505060405180910390f35b6119ca600480360360208110156119b457600080fd5b8101908080359060200190929190505050613cac565b6040518080602001838152602001828103825284818151815260200191508051906020019080838360005b83811015611a105780820151818401526020810190506119f5565b50505050905090810190601f168015611a3d5780820380516001836020036101000a031916815260200191505b50935050505060405180910390f35b611a8260048036036040811015611a6257600080fd5b810190808035906020019092919080359060200190929190505050613d75565b6040518082815260200191505060405180910390f35b611aa0613da3565b604051808060200180602001838103835285818151815260200191508051906020019080838360005b83811015611ae4578082015181840152602081019050611ac9565b50505050905090810190601f168015611b115780820380516001836020036101000a031916815260200191505b50838103825284818151815260200191508051906020019080838360005b83811015611b4a578082015181840152602081019050611b2f565b50505050905090810190601f168015611b775780820380516001836020036101000a031916815260200191505b5094505050505060405180910390f35b611b8f614195565b604051808273ffffffffffffffffffffffffffffffffffffffff1673ffffffffffffffffffffffffffffffffffffffff16815260200191505060405180910390f35b611bfd60048036036020811015611be757600080fd5b81019080803590602001909291905050506141bb565b604051808273ffffffffffffffffffffffffffffffffffffffff1673ffffffffffffffffffffffffffffffffffffffff16815260200191505060405180910390f35b611c6b60048036036020811015611c5557600080fd5b81019080803590602001909291905050506141f7565b6040518082815260200191505060405180910390f35b611d5860048036036080811015611c9757600080fd5b8101908080359060200190929190803590602001909291908035906020019092919080359060200190640100000000811115611cd257600080fd5b820183602082011115611ce457600080fd5b80359060200191846001830284011164010000000083111715611d0657600080fd5b91908080601f016020809104026020016040519081016040528093929190818152602001838380828437600081840152601f19601f820116905080830192505050505050509192919290505050614217565b005b611e3d60048036036060811015611d7057600080fd5b81019080803573ffffffffffffffffffffffffffffffffffffffff16906020019092919080359060200190640100000000811115611dad57600080fd5b820183602082011115611dbf57600080fd5b80359060200191846001830284011164010000000083111715611de157600080fd5b91908080601f016020809104026020016040519081016040528093929190818152602001838380828437600081840152601f19601f820116905080830192505050505050509192919290803590602001909291905050506145e7565b6040518082815260200191505060405180910390f35b600e602052816000526040600020602052806000526040600020600091509150508060000160009054906101000a900473ffffffffffffffffffffffffffffffffffffffff16905081565b60008060009054906101000a900473ffffffffffffffffffffffffffffffffffffffff1673ffffffffffffffffffffffffffffffffffffffff163373ffffffffffffffffffffffffffffffffffffffff1614611f62576040517f08c379a00000000000000000000000000000000000000000000000000000000081526004018080602001828103825260178152602001807f536f6c6f207065726d697469646f20616c206f776e657200000000000000000081525060200191505060405180910390fd5b6060849050600081511415611fc2576040517f08c379a0000000000000000000000000000000000000000000000000000000008152600401808060200182810382526024815260200180614b146024913960400191505060405180910390fd5b60076040518060800160405280888152602001878152602001868152602001858152509080600181540180825580915050906001820390600052602060002090600402016000909192909190915060008201518160000155602082015181600101908051906020019061203692919061490e565b50604082015181600201908051906020019061205392919061490e565b50606082015181600301908051906020019061207092919061490e565b50505050600160078054905003915050949350505050565b6000600d6000838152602001908152602001600020805490509050919050565b60136020528060005260406000206000915090505481565b6060806120cc3361462f565b612121576040517f08c379a0000000000000000000000000000000000000000000000000000000008152600401808060200182810382526025815260200180614a7f6025913960400191505060405180910390fd5b61212961498e565b600260003373ffffffffffffffffffffffffffffffffffffffff1673ffffffffffffffffffffffffffffffffffffffff168152602001908152602001600020604051806060016040529081600082018054600181600116156101000203166002900480601f01602080910402602001604051908101604052809291908181526020018280546001816001161561010002031660029004801561220c5780601f106121e15761010080835404028352916020019161220c565b820191906000526020600020905b8154815290600101906020018083116121ef57829003601f168201915b50505050508152602001600182018054600181600116156101000203166002900480601f0160208091040260200160405190810160405280929190818152602001828054600181600116156101000203166002900480156122ae5780601f10612283576101008083540402835291602001916122ae565b820191906000526020600020905b81548152906001019060200180831161229157829003601f168201915b50505050508152602001600282018054600181600116156101000203166002900480601f0160208091040260200160405190810160405280929190818152602001828054600181600116156101000203166002900480156123505780601f1061232557610100808354040283529160200191612350565b820191906000526020600020905b81548152906001019060200180831161233357829003601f168201915b50505050508152505090508060000151925080602001519150509091565b6123773361462f565b80612387575061238633614724565b5b806123de57506000809054906101000a900473ffffffffffffffffffffffffffffffffffffffff1673ffffffffffffffffffffffffffffffffffffffff163373ffffffffffffffffffffffffffffffffffffffff16145b612433576040517f08c379a0000000000000000000000000000000000000000000000000000000008152600401808060200182810382526028815260200180614a576028913960400191505060405180910390fd5b601882106124a9576040517f08c379a000000000000000000000000000000000000000000000000000000000815260040180806020018281038252600e8152602001807f5475726e6f20696e76616c69646f00000000000000000000000000000000000081525060200191505060405180910390fd5b3373ffffffffffffffffffffffffffffffffffffffff16601060008681526020019081526020016000206000858152602001908152602001600020600084815260200190815260200160002060000160009054906101000a900473ffffffffffffffffffffffffffffffffffffffff1673ffffffffffffffffffffffffffffffffffffffff16148061258757506000809054906101000a900473ffffffffffffffffffffffffffffffffffffffff1673ffffffffffffffffffffffffffffffffffffffff163373ffffffffffffffffffffffffffffffffffffffff16145b6125f9576040517f08c379a000000000000000000000000000000000000000000000000000000000815260040180806020018281038252601c8152602001807f6c612072657365727661206573206465206f74726f20616c756d6e6f0000000081525060200191505060405180910390fd5b6000601060008681526020019081526020016000206000858152602001908152602001600020600084815260200190815260200160002060000160009054906101000a900473ffffffffffffffffffffffffffffffffffffffff1690506040518060200160405280600073ffffffffffffffffffffffffffffffffffffffff16815250601060008781526020019081526020016000206000868152602001908152602001600020600085815260200190815260200160002060008201518160000160006101000a81548173ffffffffffffffffffffffffffffffffffffffff021916908373ffffffffffffffffffffffffffffffffffffffff160217905550905050601160008273ffffffffffffffffffffffffffffffffffffffff1673ffffffffffffffffffffffffffffffffffffffff168152602001908152602001600020826040518082805190602001908083835b6020831061276e578051825260208201915060208101905060208303925061274b565b6001836020036101000a0380198251168184511680821785525050505050509050019150509081526020016040518091039020600085815260200190815260200160002060008154809291906001900391905055505050505050565b6003602052806000526040600020600091509050806000018054600181600116156101000203166002900480601f0160208091040260200160405190810160405280929190818152602001828054600181600116156101000203166002900480156128765780601f1061284b57610100808354040283529160200191612876565b820191906000526020600020905b81548152906001019060200180831161285957829003601f168201915b505050505090806001018054600181600116156101000203166002900480601f0160208091040260200160405190810160405280929190818152602001828054600181600116156101000203166002900480156129145780601f106128e957610100808354040283529160200191612914565b820191906000526020600020905b8154815290600101906020018083116128f757829003601f168201915b505050505090806002018054600181600116156101000203166002900480601f0160208091040260200160405190810160405280929190818152602001828054600181600116156101000203166002900480156129b25780601f10612987576101008083540402835291602001916129b2565b820191906000526020600020905b81548152906001019060200180831161299557829003601f168201915b505050505090806003018054600181600116156101000203166002900480601f016020809104026020016040519081016040528092919081815260200182805460018160011615610100020316600290048015612a505780601f10612a2557610100808354040283529160200191612a50565b820191906000526020600020905b815481529060010190602001808311612a3357829003601f168201915b505050505090806004018054600181600116156101000203166002900480601f016020809104026020016040519081016040528092919081815260200182805460018160011615610100020316600290048015612aee5780601f10612ac357610100808354040283529160200191612aee565b820191906000526020600020905b815481529060010190602001808311612ad157829003601f168201915b5050505050905085565b612b013361462f565b15612b57576040517f08c379a0000000000000000000000000000000000000000000000000000000008152600401808060200182810382526028815260200180614a576028913960400191505060405180910390fd5b6060839050600081511415612bd4576040517f08c379a000000000000000000000000000000000000000000000000000000000815260040180806020018281038252601c8152602001807f456c206e6f6d627265206e6f2070756564652073657220766163696f0000000081525060200191505060405180910390fd5b612bdc61498e565b604051806060016040528086815260200185815260200184815250905080600260003373ffffffffffffffffffffffffffffffffffffffff1673ffffffffffffffffffffffffffffffffffffffff1681526020019081526020016000206000820151816000019080519060200190612c5592919061490e565b506020820151816001019080519060200190612c7292919061490e565b506040820151816002019080519060200190612c8f92919061490e565b5090505060043390806001815401808255809150509060018203906000526020600020016000909192909190916101000a81548173ffffffffffffffffffffffffffffffffffffffff021916908373ffffffffffffffffffffffffffffffffffffffff160217905550505050505050565b6000600980549050905090565b60098181548110612d1a57fe5b9060005260206000209060020201600091509050806000018054600181600116156101000203166002900480601f016020809104026020016040519081016040528092919081815260200182805460018160011615610100020316600290048015612dc65780601f10612d9b57610100808354040283529160200191612dc6565b820191906000526020600020905b815481529060010190602001808311612da957829003601f168201915b5050505050908060010154905082565b6002602052806000526040600020600091509050806000018054600181600116156101000203166002900480601f016020809104026020016040519081016040528092919081815260200182805460018160011615610100020316600290048015612e825780601f10612e5757610100808354040283529160200191612e82565b820191906000526020600020905b815481529060010190602001808311612e6557829003601f168201915b505050505090806001018054600181600116156101000203166002900480601f016020809104026020016040519081016040528092919081815260200182805460018160011615610100020316600290048015612f205780601f10612ef557610100808354040283529160200191612f20565b820191906000526020600020905b815481529060010190602001808311612f0357829003601f168201915b505050505090806002018054600181600116156101000203166002900480601f016020809104026020016040519081016040528092919081815260200182805460018160011615610100020316600290048015612fbe5780601f10612f9357610100808354040283529160200191612fbe565b820191906000526020600020905b815481529060010190602001808311612fa157829003601f168201915b5050505050905083565b6000600680549050905090565b6000600580549050905090565b60008060009054906101000a900473ffffffffffffffffffffffffffffffffffffffff1673ffffffffffffffffffffffffffffffffffffffff163373ffffffffffffffffffffffffffffffffffffffff16146130a6576040517f08c379a00000000000000000000000000000000000000000000000000000000081526004018080602001828103825260178152602001807f536f6c6f207065726d697469646f20616c206f776e657200000000000000000081525060200191505060405180910390fd5b6060839050600081511415613106576040517f08c379a000000000000000000000000000000000000000000000000000000000815260040180806020018281038252602a815260200180614b67602a913960400191505060405180910390fd5b600960405180604001604052808681526020018581525090806001815401808255809150509060018203906000526020600020906002020160009091929091909150600082015181600001908051906020019061316492919061490e565b506020820151816001015550505060016009805490500391505092915050565b60008060009054906101000a900473ffffffffffffffffffffffffffffffffffffffff1673ffffffffffffffffffffffffffffffffffffffff163373ffffffffffffffffffffffffffffffffffffffff1614613248576040517f08c379a00000000000000000000000000000000000000000000000000000000081526004018080602001828103825260178152602001807f536f6c6f207065726d697469646f20616c206f776e657200000000000000000081525060200191505060405180910390fd5b60608490506000815114156132a8576040517f08c379a0000000000000000000000000000000000000000000000000000000008152600401808060200182810382526027815260200180614ac76027913960400191505060405180910390fd5b600660405180606001604052808781526020018681526020018581525090806001815401808255809150509060018203906000526020600020906003020160009091929091909150600082015181600001908051906020019061330c92919061490e565b5060208201518160010155604082015181600201908051906020019061333392919061490e565b505050506001600680549050039150509392505050565b601060205282600052604060002060205281600052604060002060205280600052604060002060009250925050508060000160009054906101000a900473ffffffffffffffffffffffffffffffffffffffff16905081565b600060126000838152602001908152602001600020805490509050919050565b6000809054906101000a900473ffffffffffffffffffffffffffffffffffffffff1681565b6015602052826000526040600020602052816000526040600020818154811061340c57fe5b9060005260206000200160009250925050505481565b61342b33614724565b15613481576040517f08c379a0000000000000000000000000000000000000000000000000000000008152600401808060200182810382526026815260200180614aee6026913960400191505060405180910390fd5b60608590506000815114156134fe576040517f08c379a000000000000000000000000000000000000000000000000000000000815260040180806020018281038252601c8152602001807f456c206e6f6d627265206e6f2070756564652073657220766163696f0000000081525060200191505060405180910390fd5b6135066149af565b6040518060a0016040528088815260200187815260200186815260200185815260200184815250905080600360003373ffffffffffffffffffffffffffffffffffffffff1673ffffffffffffffffffffffffffffffffffffffff168152602001908152602001600020600082015181600001908051906020019061358b92919061490e565b5060208201518160010190805190602001906135a892919061490e565b5060408201518160020190805190602001906135c592919061490e565b5060608201518160030190805190602001906135e292919061490e565b5060808201518160040190805190602001906135ff92919061490e565b5090505060053390806001815401808255809150509060018203906000526020600020016000909192909190916101000a81548173ffffffffffffffffffffffffffffffffffffffff021916908373ffffffffffffffffffffffffffffffffffffffff1602179055505050505050505050565b6000600480549050905090565b6012602052816000526040600020818154811061369857fe5b90600052602060002001600091509150505481565b6000600780549050905090565b600781815481106136c757fe5b9060005260206000209060040201600091509050806000015490806001018054600181600116156101000203166002900480601f0160208091040260200160405190810160405280929190818152602001828054600181600116156101000203166002900480156137795780601f1061374e57610100808354040283529160200191613779565b820191906000526020600020905b81548152906001019060200180831161375c57829003601f168201915b505050505090806002018054600181600116156101000203166002900480601f0160208091040260200160405190810160405280929190818152602001828054600181600116156101000203166002900480156138175780601f106137ec57610100808354040283529160200191613817565b820191906000526020600020905b8154815290600101906020018083116137fa57829003601f168201915b505050505090806003018054600181600116156101000203166002900480601f0160208091040260200160405190810160405280929190818152602001828054600181600116156101000203166002900480156138b55780601f1061388a576101008083540402835291602001916138b5565b820191906000526020600020905b81548152906001019060200180831161389857829003601f168201915b5050505050905084565b60008060009054906101000a900473ffffffffffffffffffffffffffffffffffffffff1673ffffffffffffffffffffffffffffffffffffffff163373ffffffffffffffffffffffffffffffffffffffff1614613983576040517f08c379a00000000000000000000000000000000000000000000000000000000081526004018080602001828103825260178152602001807f536f6c6f207065726d697469646f20616c206f776e657200000000000000000081525060200191505060405180910390fd5b60608390506000815114156139e3576040517f08c379a0000000000000000000000000000000000000000000000000000000008152600401808060200182810382526024815260200180614b146024913960400191505060405180910390fd5b6008604051806040016040528086815260200185815250908060018154018082558091505090600182039060005260206000209060020201600090919290919091506000820151816000019080519060200190613a4192919061490e565b50602082015181600101555050506000600160088054905003905060126000858152602001908152602001600020819080600181540180825580915050906001820390600052602060002001600090919290919091505550809250505092915050565b600f6020528360005260406000206020528260005260406000206020528160005260406000206020528060005260406000206000935093505050508060000160009054906101000a900473ffffffffffffffffffffffffffffffffffffffff16905081565b60048181548110613b1657fe5b906000526020600020016000915054906101000a900473ffffffffffffffffffffffffffffffffffffffff1681565b60068181548110613b5257fe5b9060005260206000209060030201600091509050806000018054600181600116156101000203166002900480601f016020809104026020016040519081016040528092919081815260200182805460018160011615610100020316600290048015613bfe5780601f10613bd357610100808354040283529160200191613bfe565b820191906000526020600020905b815481529060010190602001808311613be157829003601f168201915b505050505090806001015490806002018054600181600116156101000203166002900480601f016020809104026020016040519081016040528092919081815260200182805460018160011615610100020316600290048015613ca25780601f10613c7757610100808354040283529160200191613ca2565b820191906000526020600020905b815481529060010190602001808311613c8557829003601f168201915b5050505050905083565b60088181548110613cb957fe5b9060005260206000209060020201600091509050806000018054600181600116156101000203166002900480601f016020809104026020016040519081016040528092919081815260200182805460018160011615610100020316600290048015613d655780601f10613d3a57610100808354040283529160200191613d65565b820191906000526020600020905b815481529060010190602001808311613d4857829003601f168201915b5050505050908060010154905082565b600d6020528160005260406000208181548110613d8e57fe5b90600052602060002001600091509150505481565b606080613daf33614724565b613e04576040517f08c379a0000000000000000000000000000000000000000000000000000000008152600401808060200182810382526023815260200180614aa46023913960400191505060405180910390fd5b613e0c6149af565b600360003373ffffffffffffffffffffffffffffffffffffffff1673ffffffffffffffffffffffffffffffffffffffff1681526020019081526020016000206040518060a0016040529081600082018054600181600116156101000203166002900480601f016020809104026020016040519081016040528092919081815260200182805460018160011615610100020316600290048015613eef5780601f10613ec457610100808354040283529160200191613eef565b820191906000526020600020905b815481529060010190602001808311613ed257829003601f168201915b50505050508152602001600182018054600181600116156101000203166002900480601f016020809104026020016040519081016040528092919081815260200182805460018160011615610100020316600290048015613f915780601f10613f6657610100808354040283529160200191613f91565b820191906000526020600020905b815481529060010190602001808311613f7457829003601f168201915b50505050508152602001600282018054600181600116156101000203166002900480601f0160208091040260200160405190810160405280929190818152602001828054600181600116156101000203166002900480156140335780601f1061400857610100808354040283529160200191614033565b820191906000526020600020905b81548152906001019060200180831161401657829003601f168201915b50505050508152602001600382018054600181600116156101000203166002900480601f0160208091040260200160405190810160405280929190818152602001828054600181600116156101000203166002900480156140d55780601f106140aa576101008083540402835291602001916140d5565b820191906000526020600020905b8154815290600101906020018083116140b857829003601f168201915b50505050508152602001600482018054600181600116156101000203166002900480601f0160208091040260200160405190810160405280929190818152602001828054600181600116156101000203166002900480156141775780601f1061414c57610100808354040283529160200191614177565b820191906000526020600020905b81548152906001019060200180831161415a57829003601f168201915b50505050508152505090508060000151925080602001519150509091565b600160009054906101000a900473ffffffffffffffffffffffffffffffffffffffff1681565b600581815481106141c857fe5b906000526020600020016000915054906101000a900473ffffffffffffffffffffffffffffffffffffffff1681565b6000600d6000838152602001908152602001600020805490509050919050565b6142203361462f565b80614230575061422f33614724565b5b614285576040517f08c379a0000000000000000000000000000000000000000000000000000000008152600401808060200182810382526028815260200180614a576028913960400191505060405180910390fd5b601882106142fb576040517f08c379a000000000000000000000000000000000000000000000000000000000815260040180806020018281038252600e8152602001807f5475726e6f20696e76616c69646f00000000000000000000000000000000000081525060200191505060405180910390fd5b61430433614819565b1561435a576040517f08c379a000000000000000000000000000000000000000000000000000000000815260040180806020018281038252602f815260200180614b38602f913960400191505060405180910390fd5b6003601160003373ffffffffffffffffffffffffffffffffffffffff1673ffffffffffffffffffffffffffffffffffffffff168152602001908152602001600020826040518082805190602001908083835b602083106143cf57805182526020820191506020810190506020830392506143ac565b6001836020036101000a03801982511681845116808217855250505050505090500191505090815260200160405180910390206000858152602001908152602001600020541061446a576040517f08c379a000000000000000000000000000000000000000000000000000000000815260040180806020018281038252602a815260200180614a2d602a913960400191505060405180910390fd5b6144726149de565b60405180602001604052803373ffffffffffffffffffffffffffffffffffffffff16815250905080601060008781526020019081526020016000206000868152602001908152602001600020600085815260200190815260200160002060008201518160000160006101000a81548173ffffffffffffffffffffffffffffffffffffffff021916908373ffffffffffffffffffffffffffffffffffffffff160217905550905050601160003373ffffffffffffffffffffffffffffffffffffffff1673ffffffffffffffffffffffffffffffffffffffff168152602001908152602001600020826040518082805190602001908083835b6020831061458c5780518252602082019150602081019050602083039250614569565b6001836020036101000a03801982511681845116808217855250505050505090500191505090815260200160405180910390206000858152602001908152602001600020600081548092919060010191905055505050505050565b60116020528260005260406000208280516020810182018051848252602083016020850120818352809550505050505060205280600052604060002060009250925050505481565b60006060600260008473ffffffffffffffffffffffffffffffffffffffff1673ffffffffffffffffffffffffffffffffffffffff1681526020019081526020016000206000018054600181600116156101000203166002900480601f0160208091040260200160405190810160405280929190818152602001828054600181600116156101000203166002900480156147095780601f106146de57610100808354040283529160200191614709565b820191906000526020600020905b8154815290600101906020018083116146ec57829003601f168201915b50505050509050606081905060008151141592505050919050565b60006060600360008473ffffffffffffffffffffffffffffffffffffffff1673ffffffffffffffffffffffffffffffffffffffff1681526020019081526020016000206000018054600181600116156101000203166002900480601f0160208091040260200160405190810160405280929190818152602001828054600181600116156101000203166002900480156147fe5780601f106147d3576101008083540402835291602001916147fe565b820191906000526020600020905b8154815290600101906020018083116147e157829003601f168201915b50505050509050606081905060008151141592505050919050565b60006060600c60008473ffffffffffffffffffffffffffffffffffffffff1673ffffffffffffffffffffffffffffffffffffffff1681526020019081526020016000206000018054600181600116156101000203166002900480601f0160208091040260200160405190810160405280929190818152602001828054600181600116156101000203166002900480156148f35780601f106148c8576101008083540402835291602001916148f3565b820191906000526020600020905b8154815290600101906020018083116148d657829003601f168201915b50505050509050606081905060008151141592505050919050565b828054600181600116156101000203166002900490600052602060002090601f016020900481019282601f1061494f57805160ff191683800117855561497d565b8280016001018555821561497d579182015b8281111561497c578251825591602001919060010190614961565b5b50905061498a9190614a07565b5090565b60405180606001604052806060815260200160608152602001606081525090565b6040518060a0016040528060608152602001606081526020016060815260200160608152602001606081525090565b6040518060200160405280600073ffffffffffffffffffffffffffffffffffffffff1681525090565b614a2991905b80821115614a25576000816000905550600101614a0d565b5090565b9056fe736520686120657863656469646f20656c206e756d65726f206d6178696d6f206465206372656469746f536f6c6f207065726d697469646f206120616c756d6e6f73206e6f206d6174726963756c61646f73536f6c6f207065726d697469646f206120616c756d6e6f73206d6174726963756c61646f73536f6c6f207065726d697469646f20612070726f666573207265676973747261646f73456c206e6f6d627265206465206c612061736967206e6f2070756564652073657220766163696f536f6c6f207065726d697469646f20612070726f666573206e6f207265676973747261646f73456c206e6f6d6272652064656c206c6162206e6f2070756564652073657220766163696f536f6c6f207065726d697469646f2061207475726e6f7320717565206e6f20657374656e2072657365727661646f73456c206e6f6d627265206465206c61207475726e6f206e6f20707565646520657374617220766163696fa265627a7a723158205f8d876d0661a7c66888220fef66a6be0b61b57d0380e5945234c08938febdc664736f6c63430005100032",
  "source": "    \r\n    \r\npragma solidity  <0.9.0;\r\n\r\ncontract ReslabEtsit {\r\n    \r\n   \r\n    /**\r\n     * address del profesor y owner\r\n     * \r\n     */\r\n    address public owner;\r\n    address public profesor;\r\n     \r\n    \r\n \r\n\r\n    \r\n    \r\n   \r\n     /**\r\n     * Datos de los puestos del laboratorio\r\n     * \r\n     */\r\n    \r\n    struct DatosPuesto {\r\n\r\n\r\n    \r\n\tstring nombre;\r\n\t\r\n\tuint indexlab;\r\n\r\n       \r\n    }\r\n    \r\n    /**\r\n     * Datos de los turnos del laboratorio\r\n     * \r\n     */\r\n\r\n    struct DatosTurno{\r\n        string nombre;\r\n        uint fecha;\r\n      \r\n    }\r\n    \r\n    \r\n    /**\r\n     * Datos del laboratorio\r\n     * \r\n     */\r\n\r\n    struct DatosLaboratorio {\r\n        uint laboratorioindex;\r\n        \r\n        string nombreL;\r\n        string asignaura;\r\n        string info;\r\n        \r\n        \r\n       \r\n    }\r\n\r\n\r\n\r\n\r\n    /**\r\n     * Datos del alumno\r\n     * \r\n     */\r\n    struct DatosAlumno {\r\n        string nombre;\r\n        string email;\r\n        string asignaturasMatriculadas;\r\n        \r\n    }\r\n    \r\n    /**\r\n     * Datos del profesor\r\n     * \r\n     */\r\n    \r\n    struct DatosProfesor{\r\n        string nombreP;\r\n        string emailP;\r\n        string asignaturaP;\r\n        string departamentoP;\r\n        string LaboratorioP;\r\n    }\r\n    \r\n    \r\n\r\n\r\n    /**\r\n     * Datos de la asignatura\r\n     * \r\n     */\r\n\r\n\r\n    \r\n    struct DatosAsignatura{\r\n        string nombre;\r\n       \r\n        uint indexLab;\r\n        string info;\r\n        \r\n        \r\n    }\r\n    \r\n     /**\r\n     * Contador de un crdito diario\r\n     * \r\n     */\r\n\r\n    struct CreditoDiario {\r\n        uint creditoDiario;\r\n    }\r\n    \r\n    \r\n    /**\r\n     * \r\n\r\n     Datos de la reserva de un usuario\r\n     * */\r\n     \r\n     struct DatosReserva{\r\n         address dirAlumno;\r\n      \r\n     }\r\n     \r\n\r\n      \r\n\r\n    \r\n    /// Acceder a los datos de un alumno dada su direccion.\r\n    mapping (address => DatosAlumno) public datosAlumno;\r\n\r\n    \r\n      /// Acceder a los datos de un profe dada su direccion.\r\n    mapping (address => DatosProfesor) public datosProfesor;\r\n    \r\n\r\n    //array con las direcciones de los alumnos matriculados \r\n    address[] public matriculas;\r\n    \r\n    \r\n    //array con las direcciones de los profes registrados \r\n    address[] public profesRegistrados;\r\n\r\n    \r\n    \r\n    //array con la asignaturas registradas\r\n\r\n    DatosAsignatura[] public asignaturasRegistradas;\r\n    \r\n    \r\n    //array con los laboratorios registrados\r\n    DatosLaboratorio[] public laboratoriosRegistrados;\r\n   \r\n\r\n    //array con los  puestos en la escuela\r\n    DatosPuesto[] public puestosRegistrados;\r\n    \r\n \r\n\r\n    // array  turnos de los puestos\r\n\r\n    DatosTurno[] public turnosRegistrados;\r\n        \r\n    mapping (address => DatosAsignatura)  datosAsignatura;\r\n    \r\n    \r\n    mapping (address => DatosLaboratorio)  datosLaboratorio;\r\n\r\n    mapping (address => DatosTurno)  datosTurno;\r\n\r\n\r\n    \r\n\r\n\r\n\r\n\r\n    \r\n    // devuelve array con los indices de los puestos y la clave es un array de enteros laboratorio \r\n    mapping (uint=> uint[]) public puestos;\r\n\r\n\r\n\r\n\r\n    \r\n    //dado el numero puesto, turno (numero de milisegundos) ,  te devuelva la reserva\r\n   mapping( uint =>mapping (uint=> DatosReserva )) public datosReserva;\r\n\r\n\r\n   \r\n    //dado el numero lab, de un puesto, fecha (numero de milisegundos) ,  y turno te devuelva la reserva\r\n\r\n     mapping( uint =>mapping (uint=> mapping (uint=> mapping (uint=> DatosReserva )))) public datosReservaPorLabPuestoFechaTurno;\r\n\r\n     //dado el numero lab, de un puesto,  y turno te devuelva la reserva\r\n\r\n     mapping( uint =>mapping (uint=>  mapping (uint=> DatosReserva ))) public datosReservaPorLabPuestoTurno;\r\n\r\n\r\n\r\n     // dado la direcion de un alumno , una asignatura y un dia  te da un contador de reservas que lleva\r\n\r\n     mapping( address=>mapping (string=>mapping (uint => uint)))  public contadorCredito;\r\n\r\n\r\n\r\n    //dado el indice de laboratorio un array de los indices de los puestos que estan en ese laboratorio \r\n    mapping(uint=> uint[]) public puestosDelLaboratorio;\r\n\r\n\r\n\r\n    //dado el indice de una asignatura te devuelve el indice de un lab \r\n    mapping(uint => uint) public indiceLabPorAsignatura;\r\n\r\n \r\n\r\n\r\n    //dado el index de un puesto registrado \r\n    //dada la fecha ( string en formaro YYYYYMMD??????\r\n    // dado la hora del turno (de 0 a 23) \r\n    //devuelve el address del alumnos que ha reservado el turno\r\n    mapping(uint => mapping(uint => mapping (uint=> address))) reservasDelAlumno;\r\n\r\n\r\n    /// Dado el index de un puesto y una fecha te devuelve los turnos de un lab .\r\n    mapping (uint => mapping (uint  => uint[] )) public turnosPorPuesto;\r\n\r\n    \r\n    \r\n    \r\n    \r\n    /*\r\n     * Constructor.\r\n     * \r\n     * owner despligega el contrato\r\n     * \r\n    \r\n     */\r\n\r\n    \r\n    constructor()  public {\r\n        owner = msg.sender;\r\n    } \r\n\r\n    \r\n    \r\n    \r\n    \r\n    \r\n\r\n\r\n    //Devuelve la longitud de los puestos que hay en un laboratorio \r\n\r\n    function puestosDelLaboratorioLength(uint _indexlab) public view returns(uint) {\r\n        return puestosDelLaboratorio[_indexlab].length;\r\n\r\n\r\n    }\r\n\r\n\r\n\r\n  /**\r\n     * Te devuelve el numero de turnos\r\n     *\r\n     * @return El numero de turnos creadas.\r\n     */\r\n\r\n    function turnosLength() public view returns(uint) {\r\n        return turnosRegistrados.length;\r\n    }\r\n    \r\n\r\n    //devuelve la longitud del array de los puestos de un laboratorio \r\n    function puestosLaboratorioLength(uint _laboratorioindex) public view returns(uint) {\r\n        return puestos[_laboratorioindex].length;\r\n    }\r\n    \r\n    \r\n     /**\r\n     * El numero de labs  registrados\r\n     *\r\n     * @return El numero de labs creadas.\r\n     */\r\n    function laboratoriosLength() public view returns(uint) {\r\n        return laboratoriosRegistrados.length;\r\n    }\r\n    \r\n    \r\n\r\n\r\n\r\n\r\n\r\n\r\n    //puestos que hay en un lab. Coger el array que te da el mapping de puestos y devolver su .length\r\n\r\n    function puestosdeLaboratorio(uint _laboratorioindex) public view returns(uint) {\r\n\r\n        return puestos[_laboratorioindex].length;\r\n    }\r\n    \r\n\r\n\r\n\r\n \r\n\r\n\r\n\r\n    /** Funcin reservar - cualquier usuario que este registrado en la plataforma\r\n    * Parametros: puesto, fecha, turno y asignatura\r\n    */\r\n\r\n    \r\n    \r\n    \r\n\r\n        function guardarReserva(uint  _puestoId, uint  _fecha,  uint _turno, string memory _asignatura)  public {\r\n        \r\n\t\r\n       \r\n            require(estaMatriculado(msg.sender) || estaRegistrado(msg.sender),\"Solo permitido a alumnos no matriculados\");\r\n            require(_turno<24, \"Turno invalido\");\r\n            require(!estaReservado(msg.sender),\"Solo permitido a turnos que no esten reservados\");\r\n            require(contadorCredito[msg.sender][_asignatura][_fecha]<3, \"se ha excedido el numero maximo de credito\");\r\n\r\n     \r\n  \r\n\r\n            DatosReserva memory reserva = DatosReserva(msg.sender);\r\n            \r\n\r\n            datosReservaPorLabPuestoTurno[_puestoId][_fecha][_turno]= reserva;\r\n            contadorCredito[msg.sender][_asignatura][_fecha]++;\r\n            \r\n\r\n\r\n        }\r\n\r\n        \r\n    /** Funcion anular una reserva- cualquier usuario que este registrado en la plataforma\r\n    *Parametros: puesto, fecha, turno y asignatura\r\n    * El owner puede anular cualquier reserva\r\n    */\r\n\r\n\r\n       function quitarReserva(uint  _puestoId, uint  _fecha,  uint _turno,  string memory _asignatura)  public {\r\n        \r\n\t\r\n       \r\n\r\n            \r\n            require(estaMatriculado(msg.sender) || estaRegistrado(msg.sender) || msg.sender == owner,\"Solo permitido a alumnos no matriculados\");\r\n\r\n            require(_turno<24, \"Turno invalido\");\r\n           \r\n            require(datosReservaPorLabPuestoTurno[_puestoId][_fecha][_turno].dirAlumno==msg.sender  ||  msg.sender == owner, \"la reserva es de otro alumno\");\r\n            \r\n            address direccionAlumno = datosReservaPorLabPuestoTurno[_puestoId][_fecha][_turno].dirAlumno;\r\n            datosReservaPorLabPuestoTurno[_puestoId][_fecha][_turno]= DatosReserva(address(0x0));\r\n            \r\n            \r\n            contadorCredito[direccionAlumno][_asignatura][_fecha]--;\r\n\r\n        }\r\n     \r\n  \r\n    \r\n\r\n\r\n\r\n\r\n\r\n\r\n\r\n\r\n\r\n\r\n\r\n\r\n\r\n    \r\n    \r\n\r\n    \r\n    \r\n    \r\n    \r\n        \r\n     //Crea un laboratorio \r\n\r\n    function creaLaboratorio( uint  _laboratorioindex,string memory _nombreL,string memory _asignaura,string memory _Info) soloOwner public returns (uint) {\r\n        \r\n        bytes memory bn = bytes(_nombreL);\r\n        require(bn.length != 0, \"El nombre del lab no puede ser vacio\");\r\n        \r\n        laboratoriosRegistrados.push(DatosLaboratorio(_laboratorioindex,_nombreL,_asignaura,_Info));\r\n        return laboratoriosRegistrados.length - 1;\r\n    }\r\n    \r\n     // Crea una asignatura \r\n\r\n    function creaAsignatura( string memory _nombreAsig, uint _indexLab,string memory _Info)  soloOwner public returns (uint) {\r\n        \r\n        bytes memory bn = bytes(_nombreAsig);\r\n        require(bn.length != 0, \"El nombre de la asig no puede ser vacio\");\r\n        \r\n       asignaturasRegistradas.push(DatosAsignatura(_nombreAsig,_indexLab,_Info));\r\n        return asignaturasRegistradas.length - 1;\r\n    }\r\n    \r\n    \r\n    \r\n    \r\n    //Crea un puesto \r\n\r\n    function creaPuesto(string memory _NombreP,uint  _indexlab) soloOwner public returns (uint) {\r\n        \r\n        bytes memory bn = bytes(_NombreP);\r\n        require(bn.length != 0, \"El nombre del lab no puede ser vacio\");\r\n        \r\n        puestosRegistrados.push(DatosPuesto(_NombreP,_indexlab));\r\n        uint id = puestosRegistrados.length -1;\r\n\r\n        puestosDelLaboratorio[_indexlab].push(id);\r\n\r\n        return id;\r\n    \r\n    }   \r\n\r\n\r\n    //Crea un turno de laboratorio \r\n\r\n    function creaTurno(string memory _nombre, uint _fecha) soloOwner public returns (uint) {\r\n    \r\n    bytes memory bn = bytes(_nombre);\r\n    require(bn.length != 0, \"El nombre de la turno no puede estar vacio\");\r\n    \r\n    turnosRegistrados.push(DatosTurno(_nombre, _fecha));\r\n    return turnosRegistrados.length - 1;\r\n} \r\n    \r\n \r\n     /**\r\n     * El numero de alumnos matriculados.\r\n     *\r\n     * @return El numero de alumnos matriculados.\r\n     */\r\n    function matriculasLength() public view returns(uint) {\r\n        return matriculas.length;\r\n    }\r\n    \r\n    \r\n    \r\n      /**\r\n     * El numero de profes registrados.\r\n     *\r\n     * .\r\n     */\r\n    function profesRegistradosLength() public view returns(uint) {\r\n        return profesRegistrados.length;\r\n    }\r\n    \r\n    \r\n       /**\r\n     * El numero de asignaturas registrados.\r\n     *\r\n     * .\r\n     */\r\n    function asignaturasRegistradasLength() public view returns(uint) {\r\n        return asignaturasRegistradas.length;\r\n    }\r\n    \r\n    \r\n\r\n    /**\r\n     * Los alumnos se matriculan con el metodo automatricula.\r\n     * \r\n     * Impedir que se pueda meter un nombre vacio.\r\n     *\r\n     * @param _nombre El nombre del alumno. \r\n     * @param _email  El email del alumno.\r\n     */\r\n    function automatricula(string memory _nombre, string memory _email,string memory _asig) noMatriculados public {\r\n        //revert(\"siempre falla\");\r\n        bytes memory b = bytes(_nombre);\r\n        require(b.length != 0, \"El nombre no puede ser vacio\");\r\n        \r\n        DatosAlumno memory datos = DatosAlumno(_nombre, _email,_asig);\r\n        \r\n        datosAlumno[msg.sender] = datos;\r\n        \r\n        matriculas.push(msg.sender);\r\n        \r\n    }\r\n    \r\n    \r\n    /**\r\n     * Los profes se registran con el metodo autoRegistro.\r\n     * \r\n     * Impedir que se pueda meter un nombre vacio.\r\n     *\r\n     * @param _nombreP El nombre del profe. \r\n     * @param _emailP  El email del profe.\r\n    * @param _asignaturaP El nombre del profe. \r\n     * @param _departamentoP  El email del profe.\r\n     *@param _laboratorioP  El email del profe.\r\n     */\r\n\r\n    \r\n    \r\n  \r\n    function autoRegistro(string memory _nombreP, string memory _emailP,string memory _asignaturaP,string memory _departamentoP, string memory _laboratorioP ) noRegistrados public {\r\n        \r\n        bytes memory b = bytes(_nombreP);\r\n        require(b.length != 0, \"El nombre no puede ser vacio\");\r\n        \r\n        DatosProfesor memory datosP = DatosProfesor(_nombreP, _emailP,_asignaturaP,_departamentoP,_laboratorioP);\r\n        \r\n        datosProfesor[msg.sender] = datosP;\r\n        \r\n       profesRegistrados.push(msg.sender);\r\n        \r\n    }\r\n    \r\n\r\n\r\n\r\n    \r\n    \r\n    \r\n    \r\n    \r\n    \r\n    \r\n    \r\n    \r\n    \r\n    /**\r\n     * Permite a un alumno obtener sus propios datos.\r\n     * \r\n     * @return _nombre El nombre del alumno que invoca el metodo.\r\n     * @return _email  El email del alumno que invoca el metodo.\r\n     */\r\n    function quienSoy() soloMatriculados public view returns (string memory _nombre, string memory _email) {\r\n        DatosAlumno memory datos = datosAlumno[msg.sender];\r\n        _nombre = datos.nombre;\r\n        _email = datos.email;\r\n    }\r\n\r\n   /**\r\n     * Permite a un profe obtener sus propios datos.\r\n     * \r\n     * @return _nombre El nombre del profe que invoca el metodo.\r\n     * @return _email  El email del profe que invoca el metodo.\r\n     */\r\n\r\n    function quienSoyP() soloRegistrados public view returns (string memory _nombre, string memory _email) {\r\n        DatosProfesor memory datos = datosProfesor[msg.sender];\r\n        _nombre = datos.nombreP;\r\n        _email = datos.emailP;\r\n    }\r\n    \r\n\r\n \r\n    \r\n\r\n    \r\n\r\n    \r\n    \r\n    /**\r\n     * Consulta si una direccion pertenece a un alumno matriculado.\r\n     * \r\n     * @param alumno La direccion de un alumno.\r\n     * \r\n     * @return true si es una alumno matriculado.\r\n     */\r\n    function estaMatriculado(address alumno) private view returns (bool) {\r\n      \r\n        string memory _nombre = datosAlumno[alumno].nombre;\r\n        \r\n        bytes memory b = bytes(_nombre);\r\n        \r\n        return b.length != 0;\r\n    } \r\n\r\n       /**\r\n     * Consulta si un turno pertenece a un alumno matriculado.\r\n     * \r\n     * @param alumno La direccion de un alumno.\r\n     * \r\n     * @return true si es una alumno matriculado.\r\n     */\r\n\r\n\r\n       function estaReservado(address alumno) private view returns (bool) {\r\n      \r\n        string memory _nombre = datosTurno[alumno].nombre;\r\n        \r\n        bytes memory b = bytes(_nombre);\r\n        \r\n        return b.length != 0;\r\n    }\r\n    \r\n\r\n\r\n     /**\r\n     * Consulta si una direccion pertenece a un profe registrado.\r\n     * \r\n     * \r\n     */\r\n    \r\n       function estaRegistrado(address _profesor) private view returns (bool) {\r\n      \r\n        string memory _nombreP = datosProfesor[_profesor].nombreP;\r\n        \r\n        bytes memory b = bytes(_nombreP);\r\n        \r\n        return b.length != 0;\r\n    }\r\n\r\n\r\n    \r\n\r\n   \r\n\r\n\r\n\r\n\r\n    /**\r\n     * Modificador para que una funcion solo la pueda ejecutar el profesor.\r\n     * \r\n     *\r\n     */\r\n\r\n    modifier soloOwner() {\r\n        \r\n        require(msg.sender == owner, \"Solo permitido al owner\");\r\n        _;\r\n    }\r\n    \r\n    \r\n    /**\r\n     * Modificador para que una funcion solo la pueda ejecutar el profesor.\r\n     * \r\n     *\r\n     */\r\n    modifier soloProfesor() {\r\n        \r\n        require(msg.sender == profesor, \"Solo permitido al profesor\");\r\n        _;\r\n    }\r\n    \r\n    \r\n    /**\r\n     * Modificador para que una funcion solo la pueda ejecutar un alumno matriculado.\r\n     */\r\n    modifier soloMatriculados() {\r\n        \r\n        require(estaMatriculado(msg.sender), \"Solo permitido a alumnos matriculados\");\r\n        _;\r\n    }\r\n\r\n\r\n        \r\n    /**\r\n     * Modificador para que una funcion solo la pueda ejecutar un alumno matriculado.\r\n     */\r\n    modifier soloMatriculadosyOwner() {\r\n        \r\n        require(estaMatriculado(msg.sender) || msg.sender == owner, \"Solo permitido a alumnos owner matriculados\");\r\n        _;\r\n    }\r\n    \r\n    /**\r\n     * Modificador para que una funcion solo la pueda ejecutar el profesor.\r\n     * \r\n     *\r\n     */\r\n\r\n    \r\n      modifier soloRegistrados() {\r\n        \r\n        require(estaRegistrado(msg.sender), \"Solo permitido a profes registrados\");\r\n        _;\r\n    }\r\n    \r\n    \r\n \r\n    /**\r\n     * Modificador para que una funcion solo la pueda ejecutar un alumno no matriculado aun.\r\n     */\r\n    modifier noMatriculados() {\r\n        \r\n        require(!estaMatriculado(msg.sender), \"Solo permitido a alumnos no matriculados\");\r\n        _;\r\n    }\r\n    \r\n    /**\r\n     * Modificador para que una funcion solo la pueda ejecutar un profe no matriculado aun.\r\n     * \r\n     *\r\n     */\r\n\r\n    \r\n      modifier noRegistrados() {\r\n        \r\n        require(!estaRegistrado(msg.sender), \"Solo permitido a profes no registrados\");\r\n        _;\r\n    }\r\n    \r\n\r\n\r\n}\r\n",
  "sourcePath": "C:\\Users\\huert\\InfuraReslabEtsit\\truffle\\contracts\\ReslabEtsit.sol",
  "compiler": {
    "name": "solc",
    "version": "0.5.16+commit.9c3226ce.Emscripten.clang"
  },
  "schemaVersion": "3.4.11",
  "updatedAt": "2022-12-28T16:48:04.736Z",
  "devdoc": {
    "methods": {
      "autoRegistro(string,string,string,string,string)": {
        "params": {
          "_asignaturaP": "El nombre del profe. ",
          "_departamentoP": "El email del profe. param _laboratorioP  El email del profe.",
          "_emailP": "El email del profe.",
          "_nombreP": "El nombre del profe. "
        }
      },
      "automatricula(string,string,string)": {
        "params": {
          "_email": "El email del alumno.",
          "_nombre": "El nombre del alumno. "
        }
      },
      "laboratoriosLength()": {
        "return": "El numero de labs creadas."
      },
      "matriculasLength()": {
        "return": "El numero de alumnos matriculados."
      },
      "quienSoy()": {
        "return": "_nombre El nombre del alumno que invoca el metodo._email  El email del alumno que invoca el metodo."
      },
      "quienSoyP()": {
        "return": "_nombre El nombre del profe que invoca el metodo._email  El email del profe que invoca el metodo."
      },
      "turnosLength()": {
        "return": "El numero de turnos creadas."
      }
    }
  },
  "userdoc": {
    "methods": {
      "asignaturasRegistradasLength()": {
        "notice": "El numero de asignaturas registrados.      * ."
      },
      "autoRegistro(string,string,string,string,string)": {
        "notice": "Los profes se registran con el metodo autoRegistro. \r Impedir que se pueda meter un nombre vacio. "
      },
      "automatricula(string,string,string)": {
        "notice": "Los alumnos se matriculan con el metodo automatricula. \r Impedir que se pueda meter un nombre vacio. "
      },
      "guardarReserva(uint256,uint256,uint256,string)": {
        "notice": "Funcin reservar - cualquier usuario que este registrado en la plataforma Parametros: puesto, fecha, turno y asignatura"
      },
      "laboratoriosLength()": {
        "notice": "El numero de labs  registrados "
      },
      "matriculasLength()": {
        "notice": "El numero de alumnos matriculados. "
      },
      "profesRegistradosLength()": {
        "notice": "El numero de profes registrados.      * ."
      },
      "quienSoy()": {
        "notice": "Permite a un alumno obtener sus propios datos. \r"
      },
      "quienSoyP()": {
        "notice": "Permite a un profe obtener sus propios datos. \r"
      },
      "quitarReserva(uint256,uint256,uint256,string)": {
        "notice": "Funcion anular una reserva- cualquier usuario que este registrado en la plataforma arametros: puesto, fecha, turno y asignatura El owner puede anular cualquier reserva"
      },
      "turnosLength()": {
        "notice": "Te devuelve el numero de turnos "
      }
    }
  }
}